{
	"testing.sol": {
		"testingVersion": {
			"abi": [
				{
					"inputs": [],
					"stateMutability": "nonpayable",
					"type": "constructor"
				},
				{
					"inputs": [],
					"name": "getInnerValue1",
					"outputs": [
						{
							"internalType": "uint256",
							"name": "",
							"type": "uint256"
						}
					],
					"stateMutability": "view",
					"type": "function"
				},
				{
					"inputs": [],
					"name": "getInnerValue2",
					"outputs": [
						{
							"internalType": "uint256",
							"name": "",
							"type": "uint256"
						}
					],
					"stateMutability": "view",
					"type": "function"
				},
				{
					"inputs": [],
					"name": "outer",
					"outputs": [
						{
							"components": [
								{
									"internalType": "uint256",
									"name": "innerValue1",
									"type": "uint256"
								}
							],
							"internalType": "struct testingVersion.InnerStruct1",
							"name": "inner1",
							"type": "tuple"
						},
						{
							"components": [
								{
									"internalType": "uint256",
									"name": "innerValue2",
									"type": "uint256"
								}
							],
							"internalType": "struct testingVersion.InnerStruct2",
							"name": "inner2",
							"type": "tuple"
						}
					],
					"stateMutability": "view",
					"type": "function"
				}
			],
			"devdoc": {
				"kind": "dev",
				"methods": {},
				"version": 1
			},
			"evm": {
				"assembly": "    /* \"testing.sol\":72:1015  contract testingVersion {... */\n  mstore(0x40, 0x80)\n    /* \"testing.sol\":439:551  constructor() {... */\n  callvalue\n  dup1\n  iszero\n  tag_1\n  jumpi\n  0x00\n  dup1\n  revert\ntag_1:\n  pop\n    /* \"testing.sol\":495:496  1 */\n  0x01\n    /* \"testing.sol\":468:473  outer */\n  0x00\n    /* \"testing.sol\":468:496  outer.inner1.innerValue1 = 1 */\n  dup2\n  swap1\n  sstore\n    /* \"testing.sol\":538:539  2 */\n  0x02\n    /* \"testing.sol\":511:539  outer.inner2.innerValue2 = 2 */\n  swap1\n  sstore\n    /* \"testing.sol\":72:1015  contract testingVersion {... */\n  dataSize(sub_0)\n  dup1\n  dataOffset(sub_0)\n  0x00\n  codecopy\n  0x00\n  return\nstop\n\nsub_0: assembly {\n        /* \"testing.sol\":72:1015  contract testingVersion {... */\n      mstore(0x40, 0x80)\n      callvalue\n      dup1\n      iszero\n      tag_1\n      jumpi\n      0x00\n      dup1\n      revert\n    tag_1:\n      pop\n      jumpi(tag_2, lt(calldatasize, 0x04))\n      shr(0xe0, calldataload(0x00))\n      dup1\n      0x73c2ed81\n      eq\n      tag_3\n      jumpi\n      dup1\n      0x87c3dbb6\n      eq\n      tag_4\n      jumpi\n      dup1\n      0xa70848ab\n      eq\n      tag_5\n      jumpi\n    tag_2:\n      0x00\n      dup1\n      revert\n        /* \"testing.sol\":702:813  function getInnerValue2() public view returns (uint) {... */\n    tag_3:\n        /* \"testing.sol\":777:789  outer.inner2 */\n      0x01\n        /* \"testing.sol\":777:801  outer.inner2.innerValue2 */\n      sload\n        /* \"testing.sol\":702:813  function getInnerValue2() public view returns (uint) {... */\n    tag_6:\n      mload(0x40)\n        /* \"#utility.yul\":160:185   */\n      swap1\n      dup2\n      mstore\n        /* \"#utility.yul\":148:150   */\n      0x20\n        /* \"#utility.yul\":133:151   */\n      add\n        /* \"testing.sol\":702:813  function getInnerValue2() public view returns (uint) {... */\n    tag_8:\n      mload(0x40)\n      dup1\n      swap2\n      sub\n      swap1\n      return\n        /* \"testing.sol\":394:418  OuterStruct public outer */\n    tag_4:\n      0x40\n      dup1\n      mload\n      0x20\n      dup1\n      dup3\n      add\n      dup4\n      mstore\n      sload(0x00)\n      dup3\n      mstore\n      dup3\n      mload\n      swap1\n      dup2\n      add\n      swap1\n      swap3\n      mstore\n      sload(0x01)\n      dup3\n      mstore\n      tag_10\n      swap2\n      dup3\n      jump\n    tag_10:\n      0x40\n      dup1\n      mload\n        /* \"#utility.yul\":496:509   */\n      swap3\n      mload\n        /* \"#utility.yul\":478:510   */\n      dup4\n      mstore\n        /* \"#utility.yul\":546:559   */\n      swap1\n      mload\n        /* \"#utility.yul\":541:543   */\n      0x20\n        /* \"#utility.yul\":526:544   */\n      dup4\n      add\n        /* \"#utility.yul\":519:560   */\n      mstore\n        /* \"#utility.yul\":451:469   */\n      add\n        /* \"testing.sol\":394:418  OuterStruct public outer */\n      tag_8\n        /* \"#utility.yul\":196:566   */\n      jump\n        /* \"testing.sol\":571:682  function getInnerValue1() public view returns (uint) {... */\n    tag_5:\n        /* \"testing.sol\":618:622  uint */\n      0x00\n        /* \"testing.sol\":646:670  outer.inner1.innerValue1 */\n      sload\n        /* \"testing.sol\":571:682  function getInnerValue1() public view returns (uint) {... */\n      jump(tag_6)\n\n    auxdata: 0xa2646970667358221220a1f4574af44c867f47ff4ace3cb6e3be9442b4f80f12ec804f5e9331c6a7069164736f6c63430008130033\n}\n",
				"bytecode": {
					"linkReferences": {},
					"object": "608060405234801561001057600080fd5b50600160008190556002905560cc8061002a6000396000f3fe6080604052348015600f57600080fd5b5060043610603c5760003560e01c806373c2ed8114604157806387c3dbb6146058578063a70848ab14608f575b600080fd5b6001545b6040519081526020015b60405180910390f35b6040805160208082018352600054825282519081019092526001548252607b9182565b60408051925183529051602083015201604f565b600054604556fea2646970667358221220a1f4574af44c867f47ff4ace3cb6e3be9442b4f80f12ec804f5e9331c6a7069164736f6c63430008130033",
					"opcodes": "PUSH1 0x80 PUSH1 0x40 MSTORE CALLVALUE DUP1 ISZERO PUSH2 0x10 JUMPI PUSH1 0x0 DUP1 REVERT JUMPDEST POP PUSH1 0x1 PUSH1 0x0 DUP2 SWAP1 SSTORE PUSH1 0x2 SWAP1 SSTORE PUSH1 0xCC DUP1 PUSH2 0x2A PUSH1 0x0 CODECOPY PUSH1 0x0 RETURN INVALID PUSH1 0x80 PUSH1 0x40 MSTORE CALLVALUE DUP1 ISZERO PUSH1 0xF JUMPI PUSH1 0x0 DUP1 REVERT JUMPDEST POP PUSH1 0x4 CALLDATASIZE LT PUSH1 0x3C JUMPI PUSH1 0x0 CALLDATALOAD PUSH1 0xE0 SHR DUP1 PUSH4 0x73C2ED81 EQ PUSH1 0x41 JUMPI DUP1 PUSH4 0x87C3DBB6 EQ PUSH1 0x58 JUMPI DUP1 PUSH4 0xA70848AB EQ PUSH1 0x8F JUMPI JUMPDEST PUSH1 0x0 DUP1 REVERT JUMPDEST PUSH1 0x1 SLOAD JUMPDEST PUSH1 0x40 MLOAD SWAP1 DUP2 MSTORE PUSH1 0x20 ADD JUMPDEST PUSH1 0x40 MLOAD DUP1 SWAP2 SUB SWAP1 RETURN JUMPDEST PUSH1 0x40 DUP1 MLOAD PUSH1 0x20 DUP1 DUP3 ADD DUP4 MSTORE PUSH1 0x0 SLOAD DUP3 MSTORE DUP3 MLOAD SWAP1 DUP2 ADD SWAP1 SWAP3 MSTORE PUSH1 0x1 SLOAD DUP3 MSTORE PUSH1 0x7B SWAP2 DUP3 JUMP JUMPDEST PUSH1 0x40 DUP1 MLOAD SWAP3 MLOAD DUP4 MSTORE SWAP1 MLOAD PUSH1 0x20 DUP4 ADD MSTORE ADD PUSH1 0x4F JUMP JUMPDEST PUSH1 0x0 SLOAD PUSH1 0x45 JUMP INVALID LOG2 PUSH5 0x6970667358 0x22 SLT KECCAK256 LOG1 DELEGATECALL JUMPI 0x4A DELEGATECALL 0x4C DUP7 PUSH32 0x47FF4ACE3CB6E3BE9442B4F80F12EC804F5E9331C6A7069164736F6C63430008 SGT STOP CALLER "
				},
				"gasEstimates": {
					"creation": {
						"codeDepositCost": "40800",
						"executionCost": "44311",
						"totalCost": "85111"
					},
					"external": {
						"getInnerValue1()": "2303",
						"getInnerValue2()": "2248",
						"outer()": "4494"
					}
				},
				"methodIdentifiers": {
					"getInnerValue1()": "a70848ab",
					"getInnerValue2()": "73c2ed81",
					"outer()": "87c3dbb6"
				}
			},
			"storageLayout": {
				"storage": [
					{
						"astId": 17,
						"contract": "testing.sol:testingVersion",
						"label": "outer",
						"offset": 0,
						"slot": "0",
						"type": "t_struct(OuterStruct)14_storage"
					}
				],
				"types": {
					"t_struct(InnerStruct1)4_storage": {
						"encoding": "inplace",
						"label": "struct testingVersion.InnerStruct1",
						"members": [
							{
								"astId": 3,
								"contract": "testing.sol:testingVersion",
								"label": "innerValue1",
								"offset": 0,
								"slot": "0",
								"type": "t_uint256"
							}
						],
						"numberOfBytes": "32"
					},
					"t_struct(InnerStruct2)7_storage": {
						"encoding": "inplace",
						"label": "struct testingVersion.InnerStruct2",
						"members": [
							{
								"astId": 6,
								"contract": "testing.sol:testingVersion",
								"label": "innerValue2",
								"offset": 0,
								"slot": "0",
								"type": "t_uint256"
							}
						],
						"numberOfBytes": "32"
					},
					"t_struct(OuterStruct)14_storage": {
						"encoding": "inplace",
						"label": "struct testingVersion.OuterStruct",
						"members": [
							{
								"astId": 10,
								"contract": "testing.sol:testingVersion",
								"label": "inner1",
								"offset": 0,
								"slot": "0",
								"type": "t_struct(InnerStruct1)4_storage"
							},
							{
								"astId": 13,
								"contract": "testing.sol:testingVersion",
								"label": "inner2",
								"offset": 0,
								"slot": "1",
								"type": "t_struct(InnerStruct2)7_storage"
							}
						],
						"numberOfBytes": "64"
					},
					"t_uint256": {
						"encoding": "inplace",
						"label": "uint256",
						"numberOfBytes": "32"
					}
				}
			},
			"userdoc": {
				"kind": "user",
				"methods": {},
				"version": 1
			}
		}
	}
}