{
	"data": {
		"bytecode": {
			"linkReferences": {},
			"object": "60c0604052600a60809081526920b93ab71025bab6b0b960b11b60a0526000906100299082610107565b50602c600155600280546001600160a81b03191674015b38da6a701c568545dcfcb03fcb875f56beddc417905534801561006257600080fd5b506101c6565b634e487b7160e01b600052604160045260246000fd5b600181811c9082168061009257607f821691505b6020821081036100b257634e487b7160e01b600052602260045260246000fd5b50919050565b601f82111561010257600081815260208120601f850160051c810160208610156100df5750805b601f850160051c820191505b818110156100fe578281556001016100eb565b5050505b505050565b81516001600160401b0381111561012057610120610068565b6101348161012e845461007e565b846100b8565b602080601f83116001811461016957600084156101515750858301515b600019600386901b1c1916600185901b1785556100fe565b600085815260208120601f198616915b8281101561019857888601518255948401946001909101908401610179565b50858210156101b65787850151600019600388901b60f8161c191681555b5050505050600190811b01905550565b610680806101d56000396000f3fe608060405234801561001057600080fd5b50600436106100b35760003560e01c80636714b51b116100715780636714b51b14610146578063871cc9d414610159578063b880b69a14610161578063b93d1d5a1461018c578063fae2dd4b1461019f578063fdfa0a9a146101a757600080fd5b806274530a146100b8578063162ab909146100e157806323fd0e4014610101578063273ea3e3146101185780634ebeb9b01461012057806364b067ec14610133575b600080fd5b6002546100cc90600160a01b900460ff1681565b60405190151581526020015b60405180910390f35b6100f46100ef366004610306565b6101ba565b6040516100d891906103b7565b61010a60015481565b6040519081526020016100d8565b61010a6101cf565b61010a61012e366004610405565b6101ed565b61010a610141366004610427565b610211565b61010a610154366004610427565b610221565b61010a610231565b600254610174906001600160a01b031681565b6040516001600160a01b0390911681526020016100d8565b61010a61019a366004610427565b610242565b6100f4610252565b61010a6101b5366004610427565b6102e0565b606060006101c883826104c9565b5090919050565b60018054600091826101e08361059f565b9190505550600154905090565b600081836001546101fe91906105b8565b61020891906105b8565b90505b92915050565b60008160015461020b91906105cf565b60008160015461020b91906105f8565b60018054600091826101e08361060c565b60008160015461020b9190610623565b6000805461025f90610440565b80601f016020809104026020016040519081016040528092919081815260200182805461028b90610440565b80156102d85780601f106102ad576101008083540402835291602001916102d8565b820191906000526020600020905b8154815290600101906020018083116102bb57829003601f168201915b505050505081565b60008160015461020b9190610637565b634e487b7160e01b600052604160045260246000fd5b60006020828403121561031857600080fd5b813567ffffffffffffffff8082111561033057600080fd5b818401915084601f83011261034457600080fd5b813581811115610356576103566102f0565b604051601f8201601f19908116603f0116810190838211818310171561037e5761037e6102f0565b8160405282815287602084870101111561039757600080fd5b826020860160208301376000928101602001929092525095945050505050565b600060208083528351808285015260005b818110156103e4578581018301518582016040015282016103c8565b506000604082860101526040601f19601f8301168501019250505092915050565b6000806040838503121561041857600080fd5b50508035926020909101359150565b60006020828403121561043957600080fd5b5035919050565b600181811c9082168061045457607f821691505b60208210810361047457634e487b7160e01b600052602260045260246000fd5b50919050565b601f8211156104c457600081815260208120601f850160051c810160208610156104a15750805b601f850160051c820191505b818110156104c0578281556001016104ad565b5050505b505050565b815167ffffffffffffffff8111156104e3576104e36102f0565b6104f7816104f18454610440565b8461047a565b602080601f83116001811461052c57600084156105145750858301515b600019600386901b1c1916600185901b1785556104c0565b600085815260208120601f198616915b8281101561055b5788860151825594840194600190910190840161053c565b50858210156105795787850151600019600388901b60f8161c191681555b5050505050600190811b01905550565b634e487b7160e01b600052601160045260246000fd5b6000600182016105b1576105b1610589565b5060010190565b808202811582820484141761020b5761020b610589565b8181038181111561020b5761020b610589565b634e487b7160e01b600052601260045260246000fd5b600082610607576106076105e2565b500690565b60008161061b5761061b610589565b506000190190565b600082610632576106326105e2565b500490565b8082018082111561020b5761020b61058956fea26469706673582212208153ec6f7d7e962646ccd91f535b6df4510496b617a20364e550c238900e58d464736f6c63430008130033",
			"opcodes": "PUSH1 0xC0 PUSH1 0x40 MSTORE PUSH1 0xA PUSH1 0x80 SWAP1 DUP2 MSTORE PUSH10 0x20B93AB71025BAB6B0B9 PUSH1 0xB1 SHL PUSH1 0xA0 MSTORE PUSH1 0x0 SWAP1 PUSH2 0x29 SWAP1 DUP3 PUSH2 0x107 JUMP JUMPDEST POP PUSH1 0x2C PUSH1 0x1 SSTORE PUSH1 0x2 DUP1 SLOAD PUSH1 0x1 PUSH1 0x1 PUSH1 0xA8 SHL SUB NOT AND PUSH21 0x15B38DA6A701C568545DCFCB03FCB875F56BEDDC4 OR SWAP1 SSTORE CALLVALUE DUP1 ISZERO PUSH2 0x62 JUMPI PUSH1 0x0 DUP1 REVERT JUMPDEST POP PUSH2 0x1C6 JUMP JUMPDEST PUSH4 0x4E487B71 PUSH1 0xE0 SHL PUSH1 0x0 MSTORE PUSH1 0x41 PUSH1 0x4 MSTORE PUSH1 0x24 PUSH1 0x0 REVERT JUMPDEST PUSH1 0x1 DUP2 DUP2 SHR SWAP1 DUP3 AND DUP1 PUSH2 0x92 JUMPI PUSH1 0x7F DUP3 AND SWAP2 POP JUMPDEST PUSH1 0x20 DUP3 LT DUP2 SUB PUSH2 0xB2 JUMPI PUSH4 0x4E487B71 PUSH1 0xE0 SHL PUSH1 0x0 MSTORE PUSH1 0x22 PUSH1 0x4 MSTORE PUSH1 0x24 PUSH1 0x0 REVERT JUMPDEST POP SWAP2 SWAP1 POP JUMP JUMPDEST PUSH1 0x1F DUP3 GT ISZERO PUSH2 0x102 JUMPI PUSH1 0x0 DUP2 DUP2 MSTORE PUSH1 0x20 DUP2 KECCAK256 PUSH1 0x1F DUP6 ADD PUSH1 0x5 SHR DUP2 ADD PUSH1 0x20 DUP7 LT ISZERO PUSH2 0xDF JUMPI POP DUP1 JUMPDEST PUSH1 0x1F DUP6 ADD PUSH1 0x5 SHR DUP3 ADD SWAP2 POP JUMPDEST DUP2 DUP2 LT ISZERO PUSH2 0xFE JUMPI DUP3 DUP2 SSTORE PUSH1 0x1 ADD PUSH2 0xEB JUMP JUMPDEST POP POP POP JUMPDEST POP POP POP JUMP JUMPDEST DUP2 MLOAD PUSH1 0x1 PUSH1 0x1 PUSH1 0x40 SHL SUB DUP2 GT ISZERO PUSH2 0x120 JUMPI PUSH2 0x120 PUSH2 0x68 JUMP JUMPDEST PUSH2 0x134 DUP2 PUSH2 0x12E DUP5 SLOAD PUSH2 0x7E JUMP JUMPDEST DUP5 PUSH2 0xB8 JUMP JUMPDEST PUSH1 0x20 DUP1 PUSH1 0x1F DUP4 GT PUSH1 0x1 DUP2 EQ PUSH2 0x169 JUMPI PUSH1 0x0 DUP5 ISZERO PUSH2 0x151 JUMPI POP DUP6 DUP4 ADD MLOAD JUMPDEST PUSH1 0x0 NOT PUSH1 0x3 DUP7 SWAP1 SHL SHR NOT AND PUSH1 0x1 DUP6 SWAP1 SHL OR DUP6 SSTORE PUSH2 0xFE JUMP JUMPDEST PUSH1 0x0 DUP6 DUP2 MSTORE PUSH1 0x20 DUP2 KECCAK256 PUSH1 0x1F NOT DUP7 AND SWAP2 JUMPDEST DUP3 DUP2 LT ISZERO PUSH2 0x198 JUMPI DUP9 DUP7 ADD MLOAD DUP3 SSTORE SWAP5 DUP5 ADD SWAP5 PUSH1 0x1 SWAP1 SWAP2 ADD SWAP1 DUP5 ADD PUSH2 0x179 JUMP JUMPDEST POP DUP6 DUP3 LT ISZERO PUSH2 0x1B6 JUMPI DUP8 DUP6 ADD MLOAD PUSH1 0x0 NOT PUSH1 0x3 DUP9 SWAP1 SHL PUSH1 0xF8 AND SHR NOT AND DUP2 SSTORE JUMPDEST POP POP POP POP POP PUSH1 0x1 SWAP1 DUP2 SHL ADD SWAP1 SSTORE POP JUMP JUMPDEST PUSH2 0x680 DUP1 PUSH2 0x1D5 PUSH1 0x0 CODECOPY PUSH1 0x0 RETURN INVALID PUSH1 0x80 PUSH1 0x40 MSTORE CALLVALUE DUP1 ISZERO PUSH2 0x10 JUMPI PUSH1 0x0 DUP1 REVERT JUMPDEST POP PUSH1 0x4 CALLDATASIZE LT PUSH2 0xB3 JUMPI PUSH1 0x0 CALLDATALOAD PUSH1 0xE0 SHR DUP1 PUSH4 0x6714B51B GT PUSH2 0x71 JUMPI DUP1 PUSH4 0x6714B51B EQ PUSH2 0x146 JUMPI DUP1 PUSH4 0x871CC9D4 EQ PUSH2 0x159 JUMPI DUP1 PUSH4 0xB880B69A EQ PUSH2 0x161 JUMPI DUP1 PUSH4 0xB93D1D5A EQ PUSH2 0x18C JUMPI DUP1 PUSH4 0xFAE2DD4B EQ PUSH2 0x19F JUMPI DUP1 PUSH4 0xFDFA0A9A EQ PUSH2 0x1A7 JUMPI PUSH1 0x0 DUP1 REVERT JUMPDEST DUP1 PUSH3 0x74530A EQ PUSH2 0xB8 JUMPI DUP1 PUSH4 0x162AB909 EQ PUSH2 0xE1 JUMPI DUP1 PUSH4 0x23FD0E40 EQ PUSH2 0x101 JUMPI DUP1 PUSH4 0x273EA3E3 EQ PUSH2 0x118 JUMPI DUP1 PUSH4 0x4EBEB9B0 EQ PUSH2 0x120 JUMPI DUP1 PUSH4 0x64B067EC EQ PUSH2 0x133 JUMPI JUMPDEST PUSH1 0x0 DUP1 REVERT JUMPDEST PUSH1 0x2 SLOAD PUSH2 0xCC SWAP1 PUSH1 0x1 PUSH1 0xA0 SHL SWAP1 DIV PUSH1 0xFF AND DUP2 JUMP JUMPDEST PUSH1 0x40 MLOAD SWAP1 ISZERO ISZERO DUP2 MSTORE PUSH1 0x20 ADD JUMPDEST PUSH1 0x40 MLOAD DUP1 SWAP2 SUB SWAP1 RETURN JUMPDEST PUSH2 0xF4 PUSH2 0xEF CALLDATASIZE PUSH1 0x4 PUSH2 0x306 JUMP JUMPDEST PUSH2 0x1BA JUMP JUMPDEST PUSH1 0x40 MLOAD PUSH2 0xD8 SWAP2 SWAP1 PUSH2 0x3B7 JUMP JUMPDEST PUSH2 0x10A PUSH1 0x1 SLOAD DUP2 JUMP JUMPDEST PUSH1 0x40 MLOAD SWAP1 DUP2 MSTORE PUSH1 0x20 ADD PUSH2 0xD8 JUMP JUMPDEST PUSH2 0x10A PUSH2 0x1CF JUMP JUMPDEST PUSH2 0x10A PUSH2 0x12E CALLDATASIZE PUSH1 0x4 PUSH2 0x405 JUMP JUMPDEST PUSH2 0x1ED JUMP JUMPDEST PUSH2 0x10A PUSH2 0x141 CALLDATASIZE PUSH1 0x4 PUSH2 0x427 JUMP JUMPDEST PUSH2 0x211 JUMP JUMPDEST PUSH2 0x10A PUSH2 0x154 CALLDATASIZE PUSH1 0x4 PUSH2 0x427 JUMP JUMPDEST PUSH2 0x221 JUMP JUMPDEST PUSH2 0x10A PUSH2 0x231 JUMP JUMPDEST PUSH1 0x2 SLOAD PUSH2 0x174 SWAP1 PUSH1 0x1 PUSH1 0x1 PUSH1 0xA0 SHL SUB AND DUP2 JUMP JUMPDEST PUSH1 0x40 MLOAD PUSH1 0x1 PUSH1 0x1 PUSH1 0xA0 SHL SUB SWAP1 SWAP2 AND DUP2 MSTORE PUSH1 0x20 ADD PUSH2 0xD8 JUMP JUMPDEST PUSH2 0x10A PUSH2 0x19A CALLDATASIZE PUSH1 0x4 PUSH2 0x427 JUMP JUMPDEST PUSH2 0x242 JUMP JUMPDEST PUSH2 0xF4 PUSH2 0x252 JUMP JUMPDEST PUSH2 0x10A PUSH2 0x1B5 CALLDATASIZE PUSH1 0x4 PUSH2 0x427 JUMP JUMPDEST PUSH2 0x2E0 JUMP JUMPDEST PUSH1 0x60 PUSH1 0x0 PUSH2 0x1C8 DUP4 DUP3 PUSH2 0x4C9 JUMP JUMPDEST POP SWAP1 SWAP2 SWAP1 POP JUMP JUMPDEST PUSH1 0x1 DUP1 SLOAD PUSH1 0x0 SWAP2 DUP3 PUSH2 0x1E0 DUP4 PUSH2 0x59F JUMP JUMPDEST SWAP2 SWAP1 POP SSTORE POP PUSH1 0x1 SLOAD SWAP1 POP SWAP1 JUMP JUMPDEST PUSH1 0x0 DUP2 DUP4 PUSH1 0x1 SLOAD PUSH2 0x1FE SWAP2 SWAP1 PUSH2 0x5B8 JUMP JUMPDEST PUSH2 0x208 SWAP2 SWAP1 PUSH2 0x5B8 JUMP JUMPDEST SWAP1 POP JUMPDEST SWAP3 SWAP2 POP POP JUMP JUMPDEST PUSH1 0x0 DUP2 PUSH1 0x1 SLOAD PUSH2 0x20B SWAP2 SWAP1 PUSH2 0x5CF JUMP JUMPDEST PUSH1 0x0 DUP2 PUSH1 0x1 SLOAD PUSH2 0x20B SWAP2 SWAP1 PUSH2 0x5F8 JUMP JUMPDEST PUSH1 0x1 DUP1 SLOAD PUSH1 0x0 SWAP2 DUP3 PUSH2 0x1E0 DUP4 PUSH2 0x60C JUMP JUMPDEST PUSH1 0x0 DUP2 PUSH1 0x1 SLOAD PUSH2 0x20B SWAP2 SWAP1 PUSH2 0x623 JUMP JUMPDEST PUSH1 0x0 DUP1 SLOAD PUSH2 0x25F SWAP1 PUSH2 0x440 JUMP JUMPDEST DUP1 PUSH1 0x1F ADD PUSH1 0x20 DUP1 SWAP2 DIV MUL PUSH1 0x20 ADD PUSH1 0x40 MLOAD SWAP1 DUP2 ADD PUSH1 0x40 MSTORE DUP1 SWAP3 SWAP2 SWAP1 DUP2 DUP2 MSTORE PUSH1 0x20 ADD DUP3 DUP1 SLOAD PUSH2 0x28B SWAP1 PUSH2 0x440 JUMP JUMPDEST DUP1 ISZERO PUSH2 0x2D8 JUMPI DUP1 PUSH1 0x1F LT PUSH2 0x2AD JUMPI PUSH2 0x100 DUP1 DUP4 SLOAD DIV MUL DUP4 MSTORE SWAP2 PUSH1 0x20 ADD SWAP2 PUSH2 0x2D8 JUMP JUMPDEST DUP3 ADD SWAP2 SWAP1 PUSH1 0x0 MSTORE PUSH1 0x20 PUSH1 0x0 KECCAK256 SWAP1 JUMPDEST DUP2 SLOAD DUP2 MSTORE SWAP1 PUSH1 0x1 ADD SWAP1 PUSH1 0x20 ADD DUP1 DUP4 GT PUSH2 0x2BB JUMPI DUP3 SWAP1 SUB PUSH1 0x1F AND DUP3 ADD SWAP2 JUMPDEST POP POP POP POP POP DUP2 JUMP JUMPDEST PUSH1 0x0 DUP2 PUSH1 0x1 SLOAD PUSH2 0x20B SWAP2 SWAP1 PUSH2 0x637 JUMP JUMPDEST PUSH4 0x4E487B71 PUSH1 0xE0 SHL PUSH1 0x0 MSTORE PUSH1 0x41 PUSH1 0x4 MSTORE PUSH1 0x24 PUSH1 0x0 REVERT JUMPDEST PUSH1 0x0 PUSH1 0x20 DUP3 DUP5 SUB SLT ISZERO PUSH2 0x318 JUMPI PUSH1 0x0 DUP1 REVERT JUMPDEST DUP2 CALLDATALOAD PUSH8 0xFFFFFFFFFFFFFFFF DUP1 DUP3 GT ISZERO PUSH2 0x330 JUMPI PUSH1 0x0 DUP1 REVERT JUMPDEST DUP2 DUP5 ADD SWAP2 POP DUP5 PUSH1 0x1F DUP4 ADD SLT PUSH2 0x344 JUMPI PUSH1 0x0 DUP1 REVERT JUMPDEST DUP2 CALLDATALOAD DUP2 DUP2 GT ISZERO PUSH2 0x356 JUMPI PUSH2 0x356 PUSH2 0x2F0 JUMP JUMPDEST PUSH1 0x40 MLOAD PUSH1 0x1F DUP3 ADD PUSH1 0x1F NOT SWAP1 DUP2 AND PUSH1 0x3F ADD AND DUP2 ADD SWAP1 DUP4 DUP3 GT DUP2 DUP4 LT OR ISZERO PUSH2 0x37E JUMPI PUSH2 0x37E PUSH2 0x2F0 JUMP JUMPDEST DUP2 PUSH1 0x40 MSTORE DUP3 DUP2 MSTORE DUP8 PUSH1 0x20 DUP5 DUP8 ADD ADD GT ISZERO PUSH2 0x397 JUMPI PUSH1 0x0 DUP1 REVERT JUMPDEST DUP3 PUSH1 0x20 DUP7 ADD PUSH1 0x20 DUP4 ADD CALLDATACOPY PUSH1 0x0 SWAP3 DUP2 ADD PUSH1 0x20 ADD SWAP3 SWAP1 SWAP3 MSTORE POP SWAP6 SWAP5 POP POP POP POP POP JUMP JUMPDEST PUSH1 0x0 PUSH1 0x20 DUP1 DUP4 MSTORE DUP4 MLOAD DUP1 DUP3 DUP6 ADD MSTORE PUSH1 0x0 JUMPDEST DUP2 DUP2 LT ISZERO PUSH2 0x3E4 JUMPI DUP6 DUP2 ADD DUP4 ADD MLOAD DUP6 DUP3 ADD PUSH1 0x40 ADD MSTORE DUP3 ADD PUSH2 0x3C8 JUMP JUMPDEST POP PUSH1 0x0 PUSH1 0x40 DUP3 DUP7 ADD ADD MSTORE PUSH1 0x40 PUSH1 0x1F NOT PUSH1 0x1F DUP4 ADD AND DUP6 ADD ADD SWAP3 POP POP POP SWAP3 SWAP2 POP POP JUMP JUMPDEST PUSH1 0x0 DUP1 PUSH1 0x40 DUP4 DUP6 SUB SLT ISZERO PUSH2 0x418 JUMPI PUSH1 0x0 DUP1 REVERT JUMPDEST POP POP DUP1 CALLDATALOAD SWAP3 PUSH1 0x20 SWAP1 SWAP2 ADD CALLDATALOAD SWAP2 POP JUMP JUMPDEST PUSH1 0x0 PUSH1 0x20 DUP3 DUP5 SUB SLT ISZERO PUSH2 0x439 JUMPI PUSH1 0x0 DUP1 REVERT JUMPDEST POP CALLDATALOAD SWAP2 SWAP1 POP JUMP JUMPDEST PUSH1 0x1 DUP2 DUP2 SHR SWAP1 DUP3 AND DUP1 PUSH2 0x454 JUMPI PUSH1 0x7F DUP3 AND SWAP2 POP JUMPDEST PUSH1 0x20 DUP3 LT DUP2 SUB PUSH2 0x474 JUMPI PUSH4 0x4E487B71 PUSH1 0xE0 SHL PUSH1 0x0 MSTORE PUSH1 0x22 PUSH1 0x4 MSTORE PUSH1 0x24 PUSH1 0x0 REVERT JUMPDEST POP SWAP2 SWAP1 POP JUMP JUMPDEST PUSH1 0x1F DUP3 GT ISZERO PUSH2 0x4C4 JUMPI PUSH1 0x0 DUP2 DUP2 MSTORE PUSH1 0x20 DUP2 KECCAK256 PUSH1 0x1F DUP6 ADD PUSH1 0x5 SHR DUP2 ADD PUSH1 0x20 DUP7 LT ISZERO PUSH2 0x4A1 JUMPI POP DUP1 JUMPDEST PUSH1 0x1F DUP6 ADD PUSH1 0x5 SHR DUP3 ADD SWAP2 POP JUMPDEST DUP2 DUP2 LT ISZERO PUSH2 0x4C0 JUMPI DUP3 DUP2 SSTORE PUSH1 0x1 ADD PUSH2 0x4AD JUMP JUMPDEST POP POP POP JUMPDEST POP POP POP JUMP JUMPDEST DUP2 MLOAD PUSH8 0xFFFFFFFFFFFFFFFF DUP2 GT ISZERO PUSH2 0x4E3 JUMPI PUSH2 0x4E3 PUSH2 0x2F0 JUMP JUMPDEST PUSH2 0x4F7 DUP2 PUSH2 0x4F1 DUP5 SLOAD PUSH2 0x440 JUMP JUMPDEST DUP5 PUSH2 0x47A JUMP JUMPDEST PUSH1 0x20 DUP1 PUSH1 0x1F DUP4 GT PUSH1 0x1 DUP2 EQ PUSH2 0x52C JUMPI PUSH1 0x0 DUP5 ISZERO PUSH2 0x514 JUMPI POP DUP6 DUP4 ADD MLOAD JUMPDEST PUSH1 0x0 NOT PUSH1 0x3 DUP7 SWAP1 SHL SHR NOT AND PUSH1 0x1 DUP6 SWAP1 SHL OR DUP6 SSTORE PUSH2 0x4C0 JUMP JUMPDEST PUSH1 0x0 DUP6 DUP2 MSTORE PUSH1 0x20 DUP2 KECCAK256 PUSH1 0x1F NOT DUP7 AND SWAP2 JUMPDEST DUP3 DUP2 LT ISZERO PUSH2 0x55B JUMPI DUP9 DUP7 ADD MLOAD DUP3 SSTORE SWAP5 DUP5 ADD SWAP5 PUSH1 0x1 SWAP1 SWAP2 ADD SWAP1 DUP5 ADD PUSH2 0x53C JUMP JUMPDEST POP DUP6 DUP3 LT ISZERO PUSH2 0x579 JUMPI DUP8 DUP6 ADD MLOAD PUSH1 0x0 NOT PUSH1 0x3 DUP9 SWAP1 SHL PUSH1 0xF8 AND SHR NOT AND DUP2 SSTORE JUMPDEST POP POP POP POP POP PUSH1 0x1 SWAP1 DUP2 SHL ADD SWAP1 SSTORE POP JUMP JUMPDEST PUSH4 0x4E487B71 PUSH1 0xE0 SHL PUSH1 0x0 MSTORE PUSH1 0x11 PUSH1 0x4 MSTORE PUSH1 0x24 PUSH1 0x0 REVERT JUMPDEST PUSH1 0x0 PUSH1 0x1 DUP3 ADD PUSH2 0x5B1 JUMPI PUSH2 0x5B1 PUSH2 0x589 JUMP JUMPDEST POP PUSH1 0x1 ADD SWAP1 JUMP JUMPDEST DUP1 DUP3 MUL DUP2 ISZERO DUP3 DUP3 DIV DUP5 EQ OR PUSH2 0x20B JUMPI PUSH2 0x20B PUSH2 0x589 JUMP JUMPDEST DUP2 DUP2 SUB DUP2 DUP2 GT ISZERO PUSH2 0x20B JUMPI PUSH2 0x20B PUSH2 0x589 JUMP JUMPDEST PUSH4 0x4E487B71 PUSH1 0xE0 SHL PUSH1 0x0 MSTORE PUSH1 0x12 PUSH1 0x4 MSTORE PUSH1 0x24 PUSH1 0x0 REVERT JUMPDEST PUSH1 0x0 DUP3 PUSH2 0x607 JUMPI PUSH2 0x607 PUSH2 0x5E2 JUMP JUMPDEST POP MOD SWAP1 JUMP JUMPDEST PUSH1 0x0 DUP2 PUSH2 0x61B JUMPI PUSH2 0x61B PUSH2 0x589 JUMP JUMPDEST POP PUSH1 0x0 NOT ADD SWAP1 JUMP JUMPDEST PUSH1 0x0 DUP3 PUSH2 0x632 JUMPI PUSH2 0x632 PUSH2 0x5E2 JUMP JUMPDEST POP DIV SWAP1 JUMP JUMPDEST DUP1 DUP3 ADD DUP1 DUP3 GT ISZERO PUSH2 0x20B JUMPI PUSH2 0x20B PUSH2 0x589 JUMP INVALID LOG2 PUSH5 0x6970667358 0x22 SLT KECCAK256 DUP2 MSTORE8 0xEC PUSH16 0x7D7E962646CCD91F535B6DF4510496B6 OR LOG2 SUB PUSH5 0xE550C23890 0xE PC 0xD4 PUSH5 0x736F6C6343 STOP ADDMOD SGT STOP CALLER "
		},
		"gasEstimates": {
			"creation": {
				"codeDepositCost": "332800",
				"executionCost": "infinite",
				"totalCost": "infinite"
			},
			"external": {
				"addToMyNumber(uint256)": "infinite",
				"decrementNumber()": "26620",
				"divideMyNumber(uint256)": "2523",
				"findTheRemainder(uint256)": "2457",
				"incrementNumber()": "26668",
				"isTrue()": "2317",
				"multiplyMyNumber(uint256,uint256)": "infinite",
				"myName()": "infinite",
				"myNumber()": "2340",
				"myWallet()": "2381",
				"subtractFromMyNumber(uint256)": "infinite",
				"updateMyName(string)": "infinite"
			}
		},
		"methodIdentifiers": {
			"addToMyNumber(uint256)": "fdfa0a9a",
			"decrementNumber()": "871cc9d4",
			"divideMyNumber(uint256)": "b93d1d5a",
			"findTheRemainder(uint256)": "6714b51b",
			"incrementNumber()": "273ea3e3",
			"isTrue()": "0074530a",
			"multiplyMyNumber(uint256,uint256)": "4ebeb9b0",
			"myName()": "fae2dd4b",
			"myNumber()": "23fd0e40",
			"myWallet()": "b880b69a",
			"subtractFromMyNumber(uint256)": "64b067ec",
			"updateMyName(string)": "162ab909"
		}
	},
	"abi": [
		{
			"inputs": [
				{
					"internalType": "uint256",
					"name": "numberToAdd",
					"type": "uint256"
				}
			],
			"name": "addToMyNumber",
			"outputs": [
				{
					"internalType": "uint256",
					"name": "",
					"type": "uint256"
				}
			],
			"stateMutability": "view",
			"type": "function"
		},
		{
			"inputs": [],
			"name": "decrementNumber",
			"outputs": [
				{
					"internalType": "uint256",
					"name": "",
					"type": "uint256"
				}
			],
			"stateMutability": "nonpayable",
			"type": "function"
		},
		{
			"inputs": [
				{
					"internalType": "uint256",
					"name": "divisor",
					"type": "uint256"
				}
			],
			"name": "divideMyNumber",
			"outputs": [
				{
					"internalType": "uint256",
					"name": "",
					"type": "uint256"
				}
			],
			"stateMutability": "view",
			"type": "function"
		},
		{
			"inputs": [
				{
					"internalType": "uint256",
					"name": "divisor",
					"type": "uint256"
				}
			],
			"name": "findTheRemainder",
			"outputs": [
				{
					"internalType": "uint256",
					"name": "",
					"type": "uint256"
				}
			],
			"stateMutability": "view",
			"type": "function"
		},
		{
			"inputs": [],
			"name": "incrementNumber",
			"outputs": [
				{
					"internalType": "uint256",
					"name": "",
					"type": "uint256"
				}
			],
			"stateMutability": "nonpayable",
			"type": "function"
		},
		{
			"inputs": [],
			"name": "isTrue",
			"outputs": [
				{
					"internalType": "bool",
					"name": "",
					"type": "bool"
				}
			],
			"stateMutability": "view",
			"type": "function"
		},
		{
			"inputs": [
				{
					"internalType": "uint256",
					"name": "numberToMultiply",
					"type": "uint256"
				},
				{
					"internalType": "uint256",
					"name": "numberToMultiply2",
					"type": "uint256"
				}
			],
			"name": "multiplyMyNumber",
			"outputs": [
				{
					"internalType": "uint256",
					"name": "",
					"type": "uint256"
				}
			],
			"stateMutability": "view",
			"type": "function"
		},
		{
			"inputs": [],
			"name": "myName",
			"outputs": [
				{
					"internalType": "string",
					"name": "",
					"type": "string"
				}
			],
			"stateMutability": "view",
			"type": "function"
		},
		{
			"inputs": [],
			"name": "myNumber",
			"outputs": [
				{
					"internalType": "uint256",
					"name": "",
					"type": "uint256"
				}
			],
			"stateMutability": "view",
			"type": "function"
		},
		{
			"inputs": [],
			"name": "myWallet",
			"outputs": [
				{
					"internalType": "address",
					"name": "",
					"type": "address"
				}
			],
			"stateMutability": "view",
			"type": "function"
		},
		{
			"inputs": [
				{
					"internalType": "uint256",
					"name": "numberToSubtract",
					"type": "uint256"
				}
			],
			"name": "subtractFromMyNumber",
			"outputs": [
				{
					"internalType": "uint256",
					"name": "",
					"type": "uint256"
				}
			],
			"stateMutability": "view",
			"type": "function"
		},
		{
			"inputs": [
				{
					"internalType": "string",
					"name": "newName",
					"type": "string"
				}
			],
			"name": "updateMyName",
			"outputs": [
				{
					"internalType": "string",
					"name": "_myName",
					"type": "string"
				}
			],
			"stateMutability": "nonpayable",
			"type": "function"
		}
	]
}